{
  "_format": "hh-sol-artifact-1",
  "contractName": "TipADeveloper",
  "sourceName": "contracts/TipADeveloper.sol",
  "abi": [
    {
      "inputs": [],
      "stateMutability": "nonpayable",
      "type": "constructor"
    },
    {
      "anonymous": false,
      "inputs": [
        {
          "indexed": true,
          "internalType": "address",
          "name": "from",
          "type": "address"
        },
        {
          "indexed": false,
          "internalType": "uint256",
          "name": "timestamp",
          "type": "uint256"
        },
        {
          "indexed": false,
          "internalType": "string",
          "name": "name",
          "type": "string"
        },
        {
          "indexed": false,
          "internalType": "string",
          "name": "message",
          "type": "string"
        }
      ],
      "name": "NewMemo",
      "type": "event"
    },
    {
      "inputs": [],
      "name": "getMemos",
      "outputs": [
        {
          "components": [
            {
              "internalType": "address",
              "name": "from",
              "type": "address"
            },
            {
              "internalType": "uint256",
              "name": "timestamp",
              "type": "uint256"
            },
            {
              "internalType": "string",
              "name": "name",
              "type": "string"
            },
            {
              "internalType": "string",
              "name": "message",
              "type": "string"
            }
          ],
          "internalType": "struct TipADeveloper.Memo[]",
          "name": "",
          "type": "tuple[]"
        }
      ],
      "stateMutability": "view",
      "type": "function"
    },
    {
      "inputs": [],
      "name": "owner",
      "outputs": [
        {
          "internalType": "address payable",
          "name": "",
          "type": "address"
        }
      ],
      "stateMutability": "view",
      "type": "function"
    },
    {
      "inputs": [
        {
          "internalType": "string",
          "name": "_name",
          "type": "string"
        },
        {
          "internalType": "string",
          "name": "_message",
          "type": "string"
        }
      ],
      "name": "tip",
      "outputs": [],
      "stateMutability": "payable",
      "type": "function"
    },
    {
      "inputs": [
        {
          "internalType": "address",
          "name": "_newOwnerAddr",
          "type": "address"
        }
      ],
      "name": "transferOwner",
      "outputs": [],
      "stateMutability": "nonpayable",
      "type": "function"
    },
    {
      "inputs": [],
      "name": "withdrawTips",
      "outputs": [],
      "stateMutability": "nonpayable",
      "type": "function"
    }
  ],
  "bytecode": "0x608060405234801561001057600080fd5b5033600160006101000a81548173ffffffffffffffffffffffffffffffffffffffff021916908373ffffffffffffffffffffffffffffffffffffffff160217905550610d35806100616000396000f3fe60806040526004361061004a5760003560e01c8063222c675d1461004f5780633aaa74b21461006b5780634fb2e45d14610082578063865c5172146100ab5780638da5cb5b146100d6575b600080fd5b610069600480360381019061006491906107c5565b610101565b005b34801561007757600080fd5b50610080610289565b005b34801561008e57600080fd5b506100a960048036038101906100a4919061089b565b6102eb565b005b3480156100b757600080fd5b506100c06103bf565b6040516100cd9190610aa4565b60405180910390f35b3480156100e257600080fd5b506100eb6105a2565b6040516100f89190610ae7565b60405180910390f35b60003411610144576040517f08c379a000000000000000000000000000000000000000000000000000000000815260040161013b90610b5f565b60405180910390fd5b600060405180608001604052803373ffffffffffffffffffffffffffffffffffffffff16815260200142815260200184815260200183815250908060018154018082558091505060019003906000526020600020906004020160009091909190915060008201518160000160006101000a81548173ffffffffffffffffffffffffffffffffffffffff021916908373ffffffffffffffffffffffffffffffffffffffff1602179055506020820151816001015560408201518160020190805190602001906102139291906105c8565b5060608201518160030190805190602001906102309291906105c8565b5050503373ffffffffffffffffffffffffffffffffffffffff167fc56140e05f516509ae28110e0f72e17558a7561630dad2647c3ae87d986e365c42848460405161027d93929190610bc7565b60405180910390a25050565b600160009054906101000a900473ffffffffffffffffffffffffffffffffffffffff1673ffffffffffffffffffffffffffffffffffffffff166108fc479081150290604051600060405180830381858888f193505050506102e957600080fd5b565b600160009054906101000a900473ffffffffffffffffffffffffffffffffffffffff1673ffffffffffffffffffffffffffffffffffffffff163373ffffffffffffffffffffffffffffffffffffffff161461037b576040517f08c379a000000000000000000000000000000000000000000000000000000000815260040161037290610c7e565b60405180910390fd5b80600160006101000a81548173ffffffffffffffffffffffffffffffffffffffff021916908373ffffffffffffffffffffffffffffffffffffffff16021790555050565b60606000805480602002602001604051908101604052809291908181526020016000905b8282101561059957838290600052602060002090600402016040518060800160405290816000820160009054906101000a900473ffffffffffffffffffffffffffffffffffffffff1673ffffffffffffffffffffffffffffffffffffffff1673ffffffffffffffffffffffffffffffffffffffff1681526020016001820154815260200160028201805461047690610ccd565b80601f01602080910402602001604051908101604052809291908181526020018280546104a290610ccd565b80156104ef5780601f106104c4576101008083540402835291602001916104ef565b820191906000526020600020905b8154815290600101906020018083116104d257829003601f168201915b5050505050815260200160038201805461050890610ccd565b80601f016020809104026020016040519081016040528092919081815260200182805461053490610ccd565b80156105815780601f1061055657610100808354040283529160200191610581565b820191906000526020600020905b81548152906001019060200180831161056457829003601f168201915b505050505081525050815260200190600101906103e3565b50505050905090565b600160009054906101000a900473ffffffffffffffffffffffffffffffffffffffff1681565b8280546105d490610ccd565b90600052602060002090601f0160209004810192826105f6576000855561063d565b82601f1061060f57805160ff191683800117855561063d565b8280016001018555821561063d579182015b8281111561063c578251825591602001919060010190610621565b5b50905061064a919061064e565b5090565b5b8082111561066757600081600090555060010161064f565b5090565b6000604051905090565b600080fd5b600080fd5b600080fd5b600080fd5b6000601f19601f8301169050919050565b7f4e487b7100000000000000000000000000000000000000000000000000000000600052604160045260246000fd5b6106d282610689565b810181811067ffffffffffffffff821117156106f1576106f061069a565b5b80604052505050565b600061070461066b565b905061071082826106c9565b919050565b600067ffffffffffffffff8211156107305761072f61069a565b5b61073982610689565b9050602081019050919050565b82818337600083830152505050565b600061076861076384610715565b6106fa565b90508281526020810184848401111561078457610783610684565b5b61078f848285610746565b509392505050565b600082601f8301126107ac576107ab61067f565b5b81356107bc848260208601610755565b91505092915050565b600080604083850312156107dc576107db610675565b5b600083013567ffffffffffffffff8111156107fa576107f961067a565b5b61080685828601610797565b925050602083013567ffffffffffffffff8111156108275761082661067a565b5b61083385828601610797565b9150509250929050565b600073ffffffffffffffffffffffffffffffffffffffff82169050919050565b60006108688261083d565b9050919050565b6108788161085d565b811461088357600080fd5b50565b6000813590506108958161086f565b92915050565b6000602082840312156108b1576108b0610675565b5b60006108bf84828501610886565b91505092915050565b600081519050919050565b600082825260208201905092915050565b6000819050602082019050919050565b6108fd8161085d565b82525050565b6000819050919050565b61091681610903565b82525050565b600081519050919050565b600082825260208201905092915050565b60005b8381101561095657808201518184015260208101905061093b565b83811115610965576000848401525b50505050565b60006109768261091c565b6109808185610927565b9350610990818560208601610938565b61099981610689565b840191505092915050565b60006080830160008301516109bc60008601826108f4565b5060208301516109cf602086018261090d565b50604083015184820360408601526109e7828261096b565b91505060608301518482036060860152610a01828261096b565b9150508091505092915050565b6000610a1a83836109a4565b905092915050565b6000602082019050919050565b6000610a3a826108c8565b610a4481856108d3565b935083602082028501610a56856108e4565b8060005b85811015610a925784840389528151610a738582610a0e565b9450610a7e83610a22565b925060208a01995050600181019050610a5a565b50829750879550505050505092915050565b60006020820190508181036000830152610abe8184610a2f565b905092915050565b6000610ad18261083d565b9050919050565b610ae181610ac6565b82525050565b6000602082019050610afc6000830184610ad8565b92915050565b600082825260208201905092915050565b7f546970206d7573742062652067726561746572207468616e2030000000000000600082015250565b6000610b49601a83610b02565b9150610b5482610b13565b602082019050919050565b60006020820190508181036000830152610b7881610b3c565b9050919050565b610b8881610903565b82525050565b6000610b998261091c565b610ba38185610b02565b9350610bb3818560208601610938565b610bbc81610689565b840191505092915050565b6000606082019050610bdc6000830186610b7f565b8181036020830152610bee8185610b8e565b90508181036040830152610c028184610b8e565b9050949350505050565b7f596f75206d757374206265206f776e6572206f6620636f6e747261637420746f60008201527f207472616e73666572206f776e65727368697000000000000000000000000000602082015250565b6000610c68603383610b02565b9150610c7382610c0c565b604082019050919050565b60006020820190508181036000830152610c9781610c5b565b9050919050565b7f4e487b7100000000000000000000000000000000000000000000000000000000600052602260045260246000fd5b60006002820490506001821680610ce557607f821691505b60208210811415610cf957610cf8610c9e565b5b5091905056fea26469706673582212205d16bdf38cc9556ee521594e5564f17f7d6fd197979c8ef2024eeff64053436c64736f6c63430008090033",
  "linkReferences": {},
  "deployedLinkReferences": {}
}