{
  "_format": "hh-sol-artifact-1",
  "contractName": "BuyMeACoffee",
  "sourceName": "contracts/BuyMeACoffee.sol",
  "abi": [
    {
      "inputs": [],
      "stateMutability": "nonpayable",
      "type": "constructor"
    },
    {
      "anonymous": false,
      "inputs": [
        {
          "indexed": true,
          "internalType": "address",
          "name": "from",
          "type": "address"
        },
        {
          "indexed": false,
          "internalType": "uint256",
          "name": "timestamp",
          "type": "uint256"
        },
        {
          "indexed": false,
          "internalType": "string",
          "name": "name",
          "type": "string"
        },
        {
          "indexed": false,
          "internalType": "string",
          "name": "message",
          "type": "string"
        }
      ],
      "name": "NewMemo",
      "type": "event"
    },
    {
      "inputs": [
        {
          "internalType": "string",
          "name": "_name",
          "type": "string"
        },
        {
          "internalType": "string",
          "name": "_message",
          "type": "string"
        }
      ],
      "name": "buyCoffee",
      "outputs": [],
      "stateMutability": "payable",
      "type": "function"
    },
    {
      "inputs": [],
      "name": "getMemos",
      "outputs": [
        {
          "components": [
            {
              "internalType": "address",
              "name": "from",
              "type": "address"
            },
            {
              "internalType": "uint256",
              "name": "timestamp",
              "type": "uint256"
            },
            {
              "internalType": "string",
              "name": "name",
              "type": "string"
            },
            {
              "internalType": "string",
              "name": "message",
              "type": "string"
            }
          ],
          "internalType": "struct BuyMeACoffee.Memo[]",
          "name": "",
          "type": "tuple[]"
        }
      ],
      "stateMutability": "view",
      "type": "function"
    },
    {
      "inputs": [
        {
          "internalType": "address payable",
          "name": "_newOwnerAddr",
          "type": "address"
        }
      ],
      "name": "updateWithdrawAddr",
      "outputs": [],
      "stateMutability": "payable",
      "type": "function"
    },
    {
      "inputs": [],
      "name": "withdrawTips",
      "outputs": [],
      "stateMutability": "nonpayable",
      "type": "function"
    }
  ],
  "bytecode": "0x608060405234801561001057600080fd5b5033600160006101000a81548173ffffffffffffffffffffffffffffffffffffffff021916908373ffffffffffffffffffffffffffffffffffffffff160217905550610c76806100616000396000f3fe60806040526004361061003f5760003560e01c8063204206e1146100445780633aaa74b214610060578063865c517214610077578063e4c92f2b146100a2575b600080fd5b61005e600480360381019061005991906106a8565b6100be565b005b34801561006c57600080fd5b50610075610246565b005b34801561008357600080fd5b5061008c6102a8565b60405161009991906108ec565b60405180910390f35b6100bc60048036038101906100b7919061067f565b61048b565b005b60003411610101576040517f08c379a00000000000000000000000000000000000000000000000000000000081526004016100f89061092e565b60405180910390fd5b600060405180608001604052803373ffffffffffffffffffffffffffffffffffffffff16815260200142815260200184815260200183815250908060018154018082558091505060019003906000526020600020906004020160009091909190915060008201518160000160006101000a81548173ffffffffffffffffffffffffffffffffffffffff021916908373ffffffffffffffffffffffffffffffffffffffff1602179055506020820151816001015560408201518160020190805190602001906101d092919061055f565b5060608201518160030190805190602001906101ed92919061055f565b5050503373ffffffffffffffffffffffffffffffffffffffff167fc56140e05f516509ae28110e0f72e17558a7561630dad2647c3ae87d986e365c42848460405161023a9392919061094e565b60405180910390a25050565b600160009054906101000a900473ffffffffffffffffffffffffffffffffffffffff1673ffffffffffffffffffffffffffffffffffffffff166108fc479081150290604051600060405180830381858888f193505050506102a657600080fd5b565b60606000805480602002602001604051908101604052809291908181526020016000905b8282101561048257838290600052602060002090600402016040518060800160405290816000820160009054906101000a900473ffffffffffffffffffffffffffffffffffffffff1673ffffffffffffffffffffffffffffffffffffffff1673ffffffffffffffffffffffffffffffffffffffff1681526020016001820154815260200160028201805461035f90610adf565b80601f016020809104026020016040519081016040528092919081815260200182805461038b90610adf565b80156103d85780601f106103ad576101008083540402835291602001916103d8565b820191906000526020600020905b8154815290600101906020018083116103bb57829003601f168201915b505050505081526020016003820180546103f190610adf565b80601f016020809104026020016040519081016040528092919081815260200182805461041d90610adf565b801561046a5780601f1061043f5761010080835404028352916020019161046a565b820191906000526020600020905b81548152906001019060200180831161044d57829003601f168201915b505050505081525050815260200190600101906102cc565b50505050905090565b3373ffffffffffffffffffffffffffffffffffffffff16600160009054906101000a900473ffffffffffffffffffffffffffffffffffffffff1673ffffffffffffffffffffffffffffffffffffffff161461051b576040517f08c379a00000000000000000000000000000000000000000000000000000000081526004016105129061090e565b60405180910390fd5b80600160006101000a81548173ffffffffffffffffffffffffffffffffffffffff021916908373ffffffffffffffffffffffffffffffffffffffff16021790555050565b82805461056b90610adf565b90600052602060002090601f01602090048101928261058d57600085556105d4565b82601f106105a657805160ff19168380011785556105d4565b828001600101855582156105d4579182015b828111156105d35782518255916020019190600101906105b8565b5b5090506105e191906105e5565b5090565b5b808211156105fe5760008160009055506001016105e6565b5090565b6000610615610610846109b8565b610993565b90508281526020810184848401111561062d57600080fd5b610638848285610a9d565b509392505050565b60008135905061064f81610c29565b92915050565b600082601f83011261066657600080fd5b8135610676848260208601610602565b91505092915050565b60006020828403121561069157600080fd5b600061069f84828501610640565b91505092915050565b600080604083850312156106bb57600080fd5b600083013567ffffffffffffffff8111156106d557600080fd5b6106e185828601610655565b925050602083013567ffffffffffffffff8111156106fe57600080fd5b61070a85828601610655565b9150509250929050565b60006107208383610864565b905092915050565b61073181610a4f565b82525050565b6000610742826109f9565b61074c8185610a1c565b93508360208202850161075e856109e9565b8060005b8581101561079a578484038952815161077b8582610714565b945061078683610a0f565b925060208a01995050600181019050610762565b50829750879550505050505092915050565b60006107b782610a04565b6107c18185610a2d565b93506107d1818560208601610aac565b6107da81610ba0565b840191505092915050565b60006107f082610a04565b6107fa8185610a3e565b935061080a818560208601610aac565b61081381610ba0565b840191505092915050565b600061082b603383610a3e565b915061083682610bb1565b604082019050919050565b600061084e601b83610a3e565b915061085982610c00565b602082019050919050565b600060808301600083015161087c6000860182610728565b50602083015161088f60208601826108ce565b50604083015184820360408601526108a782826107ac565b915050606083015184820360608601526108c182826107ac565b9150508091505092915050565b6108d781610a93565b82525050565b6108e681610a93565b82525050565b600060208201905081810360008301526109068184610737565b905092915050565b600060208201905081810360008301526109278161081e565b9050919050565b6000602082019050818103600083015261094781610841565b9050919050565b600060608201905061096360008301866108dd565b818103602083015261097581856107e5565b9050818103604083015261098981846107e5565b9050949350505050565b600061099d6109ae565b90506109a98282610b11565b919050565b6000604051905090565b600067ffffffffffffffff8211156109d3576109d2610b71565b5b6109dc82610ba0565b9050602081019050919050565b6000819050602082019050919050565b600081519050919050565b600081519050919050565b6000602082019050919050565b600082825260208201905092915050565b600082825260208201905092915050565b600082825260208201905092915050565b6000610a5a82610a73565b9050919050565b6000610a6c82610a73565b9050919050565b600073ffffffffffffffffffffffffffffffffffffffff82169050919050565b6000819050919050565b82818337600083830152505050565b60005b83811015610aca578082015181840152602081019050610aaf565b83811115610ad9576000848401525b50505050565b60006002820490506001821680610af757607f821691505b60208210811415610b0b57610b0a610b42565b5b50919050565b610b1a82610ba0565b810181811067ffffffffffffffff82111715610b3957610b38610b71565b5b80604052505050565b7f4e487b7100000000000000000000000000000000000000000000000000000000600052602260045260246000fd5b7f4e487b7100000000000000000000000000000000000000000000000000000000600052604160045260246000fd5b6000601f19601f8301169050919050565b7f796f75206d757374206265206f776e6572206f6620636f6e747261637420746f60008201527f207472616e73666572206f776e65727368697000000000000000000000000000602082015250565b7f43616e27742062757920636f6666656520776974682030206574680000000000600082015250565b610c3281610a61565b8114610c3d57600080fd5b5056fea264697066735822122061e0ed77da51121f2b10143457cd11dabc4f4c568d2cfafeae25381411ff43ab64736f6c63430008040033",
  "linkReferences": {},
  "deployedLinkReferences": {}
}