{
  "_format": "hh-sol-artifact-1",
  "contractName": "BuyMeACoffee",
  "sourceName": "contracts/BuyMeACoffee.sol",
  "abi": [
    {
      "inputs": [],
      "stateMutability": "nonpayable",
      "type": "constructor"
    },
    {
      "anonymous": false,
      "inputs": [
        {
          "indexed": true,
          "internalType": "address",
          "name": "from",
          "type": "address"
        },
        {
          "indexed": false,
          "internalType": "uint256",
          "name": "timestamp",
          "type": "uint256"
        },
        {
          "indexed": false,
          "internalType": "string",
          "name": "name",
          "type": "string"
        },
        {
          "indexed": false,
          "internalType": "string",
          "name": "message",
          "type": "string"
        }
      ],
      "name": "NewMemo",
      "type": "event"
    },
    {
      "inputs": [
        {
          "internalType": "string",
          "name": "_name",
          "type": "string"
        },
        {
          "internalType": "string",
          "name": "_message",
          "type": "string"
        }
      ],
      "name": "buyCoffee",
      "outputs": [],
      "stateMutability": "payable",
      "type": "function"
    },
    {
      "inputs": [],
      "name": "getMemos",
      "outputs": [
        {
          "components": [
            {
              "internalType": "address",
              "name": "from",
              "type": "address"
            },
            {
              "internalType": "uint256",
              "name": "timestamp",
              "type": "uint256"
            },
            {
              "internalType": "string",
              "name": "name",
              "type": "string"
            },
            {
              "internalType": "string",
              "name": "message",
              "type": "string"
            }
          ],
          "internalType": "struct BuyMeACoffee.Memo[]",
          "name": "",
          "type": "tuple[]"
        }
      ],
      "stateMutability": "view",
      "type": "function"
    },
    {
      "inputs": [
        {
          "internalType": "address",
          "name": "_newOwnerAddr",
          "type": "address"
        }
      ],
      "name": "updateWithdrawAddr",
      "outputs": [],
      "stateMutability": "nonpayable",
      "type": "function"
    },
    {
      "inputs": [],
      "name": "withdrawTips",
      "outputs": [],
      "stateMutability": "nonpayable",
      "type": "function"
    }
  ],
  "bytecode": "0x608060405234801561001057600080fd5b5033600160006101000a81548173ffffffffffffffffffffffffffffffffffffffff021916908373ffffffffffffffffffffffffffffffffffffffff160217905550610c71806100616000396000f3fe60806040526004361061003f5760003560e01c8063204206e1146100445780633aaa74b214610060578063865c517214610077578063e4c92f2b146100a2575b600080fd5b61005e600480360381019061005991906106b5565b6100cb565b005b34801561006c57600080fd5b50610075610253565b005b34801561008357600080fd5b5061008c6102b5565b60405161009991906108f9565b60405180910390f35b3480156100ae57600080fd5b506100c960048036038101906100c4919061068c565b610498565b005b6000341161010e576040517f08c379a00000000000000000000000000000000000000000000000000000000081526004016101059061093b565b60405180910390fd5b600060405180608001604052803373ffffffffffffffffffffffffffffffffffffffff16815260200142815260200184815260200183815250908060018154018082558091505060019003906000526020600020906004020160009091909190915060008201518160000160006101000a81548173ffffffffffffffffffffffffffffffffffffffff021916908373ffffffffffffffffffffffffffffffffffffffff1602179055506020820151816001015560408201518160020190805190602001906101dd92919061056c565b5060608201518160030190805190602001906101fa92919061056c565b5050503373ffffffffffffffffffffffffffffffffffffffff167fc56140e05f516509ae28110e0f72e17558a7561630dad2647c3ae87d986e365c4284846040516102479392919061095b565b60405180910390a25050565b600160009054906101000a900473ffffffffffffffffffffffffffffffffffffffff1673ffffffffffffffffffffffffffffffffffffffff166108fc479081150290604051600060405180830381858888f193505050506102b357600080fd5b565b60606000805480602002602001604051908101604052809291908181526020016000905b8282101561048f57838290600052602060002090600402016040518060800160405290816000820160009054906101000a900473ffffffffffffffffffffffffffffffffffffffff1673ffffffffffffffffffffffffffffffffffffffff1673ffffffffffffffffffffffffffffffffffffffff1681526020016001820154815260200160028201805461036c90610ada565b80601f016020809104026020016040519081016040528092919081815260200182805461039890610ada565b80156103e55780601f106103ba576101008083540402835291602001916103e5565b820191906000526020600020905b8154815290600101906020018083116103c857829003601f168201915b505050505081526020016003820180546103fe90610ada565b80601f016020809104026020016040519081016040528092919081815260200182805461042a90610ada565b80156104775780601f1061044c57610100808354040283529160200191610477565b820191906000526020600020905b81548152906001019060200180831161045a57829003601f168201915b505050505081525050815260200190600101906102d9565b50505050905090565b600160009054906101000a900473ffffffffffffffffffffffffffffffffffffffff1673ffffffffffffffffffffffffffffffffffffffff163373ffffffffffffffffffffffffffffffffffffffff1614610528576040517f08c379a000000000000000000000000000000000000000000000000000000000815260040161051f9061091b565b60405180910390fd5b80600160006101000a81548173ffffffffffffffffffffffffffffffffffffffff021916908373ffffffffffffffffffffffffffffffffffffffff16021790555050565b82805461057890610ada565b90600052602060002090601f01602090048101928261059a57600085556105e1565b82601f106105b357805160ff19168380011785556105e1565b828001600101855582156105e1579182015b828111156105e05782518255916020019190600101906105c5565b5b5090506105ee91906105f2565b5090565b5b8082111561060b5760008160009055506001016105f3565b5090565b600061062261061d846109c5565b6109a0565b90508281526020810184848401111561063a57600080fd5b610645848285610a98565b509392505050565b60008135905061065c81610c24565b92915050565b600082601f83011261067357600080fd5b813561068384826020860161060f565b91505092915050565b60006020828403121561069e57600080fd5b60006106ac8482850161064d565b91505092915050565b600080604083850312156106c857600080fd5b600083013567ffffffffffffffff8111156106e257600080fd5b6106ee85828601610662565b925050602083013567ffffffffffffffff81111561070b57600080fd5b61071785828601610662565b9150509250929050565b600061072d8383610871565b905092915050565b61073e81610a5c565b82525050565b600061074f82610a06565b6107598185610a29565b93508360208202850161076b856109f6565b8060005b858110156107a757848403895281516107888582610721565b945061079383610a1c565b925060208a0199505060018101905061076f565b50829750879550505050505092915050565b60006107c482610a11565b6107ce8185610a3a565b93506107de818560208601610aa7565b6107e781610b9b565b840191505092915050565b60006107fd82610a11565b6108078185610a4b565b9350610817818560208601610aa7565b61082081610b9b565b840191505092915050565b6000610838603383610a4b565b915061084382610bac565b604082019050919050565b600061085b601b83610a4b565b915061086682610bfb565b602082019050919050565b60006080830160008301516108896000860182610735565b50602083015161089c60208601826108db565b50604083015184820360408601526108b482826107b9565b915050606083015184820360608601526108ce82826107b9565b9150508091505092915050565b6108e481610a8e565b82525050565b6108f381610a8e565b82525050565b600060208201905081810360008301526109138184610744565b905092915050565b600060208201905081810360008301526109348161082b565b9050919050565b600060208201905081810360008301526109548161084e565b9050919050565b600060608201905061097060008301866108ea565b818103602083015261098281856107f2565b9050818103604083015261099681846107f2565b9050949350505050565b60006109aa6109bb565b90506109b68282610b0c565b919050565b6000604051905090565b600067ffffffffffffffff8211156109e0576109df610b6c565b5b6109e982610b9b565b9050602081019050919050565b6000819050602082019050919050565b600081519050919050565b600081519050919050565b6000602082019050919050565b600082825260208201905092915050565b600082825260208201905092915050565b600082825260208201905092915050565b6000610a6782610a6e565b9050919050565b600073ffffffffffffffffffffffffffffffffffffffff82169050919050565b6000819050919050565b82818337600083830152505050565b60005b83811015610ac5578082015181840152602081019050610aaa565b83811115610ad4576000848401525b50505050565b60006002820490506001821680610af257607f821691505b60208210811415610b0657610b05610b3d565b5b50919050565b610b1582610b9b565b810181811067ffffffffffffffff82111715610b3457610b33610b6c565b5b80604052505050565b7f4e487b7100000000000000000000000000000000000000000000000000000000600052602260045260246000fd5b7f4e487b7100000000000000000000000000000000000000000000000000000000600052604160045260246000fd5b6000601f19601f8301169050919050565b7f796f75206d757374206265206f776e6572206f6620636f6e747261637420746f60008201527f207472616e73666572206f776e65727368697000000000000000000000000000602082015250565b7f43616e27742062757920636f6666656520776974682030206574680000000000600082015250565b610c2d81610a5c565b8114610c3857600080fd5b5056fea26469706673582212208223833b68d84692322563b9d9f055d9e556c3faba6fbf930874fd881c8fb21964736f6c63430008040033",
  "linkReferences": {},
  "deployedLinkReferences": {}
}